{
  "_format": "hh-sol-artifact-1",
  "contractName": "UNI",
  "sourceName": "contracts/UNI.sol",
  "abi": [
    {
      "inputs": [
        {
          "internalType": "uint256",
          "name": "cap",
          "type": "uint256"
        },
        {
          "internalType": "uint256",
          "name": "rate",
          "type": "uint256"
        }
      ],
      "stateMutability": "nonpayable",
      "type": "constructor"
    },
    {
      "inputs": [
        {
          "internalType": "uint256",
          "name": "increasedSupply",
          "type": "uint256"
        },
        {
          "internalType": "uint256",
          "name": "cap",
          "type": "uint256"
        }
      ],
      "name": "ERC20ExceededCap",
      "type": "error"
    },
    {
      "inputs": [
        {
          "internalType": "address",
          "name": "spender",
          "type": "address"
        },
        {
          "internalType": "uint256",
          "name": "allowance",
          "type": "uint256"
        },
        {
          "internalType": "uint256",
          "name": "needed",
          "type": "uint256"
        }
      ],
      "name": "ERC20InsufficientAllowance",
      "type": "error"
    },
    {
      "inputs": [
        {
          "internalType": "address",
          "name": "sender",
          "type": "address"
        },
        {
          "internalType": "uint256",
          "name": "balance",
          "type": "uint256"
        },
        {
          "internalType": "uint256",
          "name": "needed",
          "type": "uint256"
        }
      ],
      "name": "ERC20InsufficientBalance",
      "type": "error"
    },
    {
      "inputs": [
        {
          "internalType": "address",
          "name": "approver",
          "type": "address"
        }
      ],
      "name": "ERC20InvalidApprover",
      "type": "error"
    },
    {
      "inputs": [
        {
          "internalType": "uint256",
          "name": "cap",
          "type": "uint256"
        }
      ],
      "name": "ERC20InvalidCap",
      "type": "error"
    },
    {
      "inputs": [
        {
          "internalType": "address",
          "name": "receiver",
          "type": "address"
        }
      ],
      "name": "ERC20InvalidReceiver",
      "type": "error"
    },
    {
      "inputs": [
        {
          "internalType": "address",
          "name": "sender",
          "type": "address"
        }
      ],
      "name": "ERC20InvalidSender",
      "type": "error"
    },
    {
      "inputs": [
        {
          "internalType": "address",
          "name": "spender",
          "type": "address"
        }
      ],
      "name": "ERC20InvalidSpender",
      "type": "error"
    },
    {
      "anonymous": false,
      "inputs": [
        {
          "indexed": true,
          "internalType": "address",
          "name": "owner",
          "type": "address"
        },
        {
          "indexed": true,
          "internalType": "address",
          "name": "spender",
          "type": "address"
        },
        {
          "indexed": false,
          "internalType": "uint256",
          "name": "value",
          "type": "uint256"
        }
      ],
      "name": "Approval",
      "type": "event"
    },
    {
      "anonymous": false,
      "inputs": [
        {
          "indexed": false,
          "internalType": "address",
          "name": "purchaser",
          "type": "address"
        },
        {
          "indexed": false,
          "internalType": "uint256",
          "name": "value",
          "type": "uint256"
        },
        {
          "indexed": false,
          "internalType": "uint256",
          "name": "amount",
          "type": "uint256"
        },
        {
          "indexed": false,
          "internalType": "uint256",
          "name": "timestamp",
          "type": "uint256"
        }
      ],
      "name": "TokensPurchased",
      "type": "event"
    },
    {
      "anonymous": false,
      "inputs": [
        {
          "indexed": true,
          "internalType": "address",
          "name": "from",
          "type": "address"
        },
        {
          "indexed": true,
          "internalType": "address",
          "name": "to",
          "type": "address"
        },
        {
          "indexed": false,
          "internalType": "uint256",
          "name": "value",
          "type": "uint256"
        }
      ],
      "name": "Transfer",
      "type": "event"
    },
    {
      "inputs": [],
      "name": "Rate",
      "outputs": [
        {
          "internalType": "uint256",
          "name": "",
          "type": "uint256"
        }
      ],
      "stateMutability": "view",
      "type": "function"
    },
    {
      "inputs": [],
      "name": "_rate",
      "outputs": [
        {
          "internalType": "uint256",
          "name": "",
          "type": "uint256"
        }
      ],
      "stateMutability": "view",
      "type": "function"
    },
    {
      "inputs": [],
      "name": "_weiRaised",
      "outputs": [
        {
          "internalType": "uint256",
          "name": "",
          "type": "uint256"
        }
      ],
      "stateMutability": "view",
      "type": "function"
    },
    {
      "inputs": [
        {
          "internalType": "address",
          "name": "owner",
          "type": "address"
        },
        {
          "internalType": "address",
          "name": "spender",
          "type": "address"
        }
      ],
      "name": "allowance",
      "outputs": [
        {
          "internalType": "uint256",
          "name": "",
          "type": "uint256"
        }
      ],
      "stateMutability": "view",
      "type": "function"
    },
    {
      "inputs": [],
      "name": "amountInETHReceived",
      "outputs": [
        {
          "internalType": "uint256",
          "name": "",
          "type": "uint256"
        }
      ],
      "stateMutability": "view",
      "type": "function"
    },
    {
      "inputs": [
        {
          "internalType": "address",
          "name": "spender",
          "type": "address"
        },
        {
          "internalType": "uint256",
          "name": "value",
          "type": "uint256"
        }
      ],
      "name": "approve",
      "outputs": [
        {
          "internalType": "bool",
          "name": "",
          "type": "bool"
        }
      ],
      "stateMutability": "nonpayable",
      "type": "function"
    },
    {
      "inputs": [
        {
          "internalType": "address",
          "name": "account",
          "type": "address"
        }
      ],
      "name": "balanceOf",
      "outputs": [
        {
          "internalType": "uint256",
          "name": "",
          "type": "uint256"
        }
      ],
      "stateMutability": "view",
      "type": "function"
    },
    {
      "inputs": [],
      "name": "buyTokens",
      "outputs": [],
      "stateMutability": "payable",
      "type": "function"
    },
    {
      "inputs": [],
      "name": "cap",
      "outputs": [
        {
          "internalType": "uint256",
          "name": "",
          "type": "uint256"
        }
      ],
      "stateMutability": "view",
      "type": "function"
    },
    {
      "inputs": [
        {
          "internalType": "uint256",
          "name": "weiAmount",
          "type": "uint256"
        }
      ],
      "name": "claimReferralTokens",
      "outputs": [],
      "stateMutability": "nonpayable",
      "type": "function"
    },
    {
      "inputs": [],
      "name": "decimals",
      "outputs": [
        {
          "internalType": "uint8",
          "name": "",
          "type": "uint8"
        }
      ],
      "stateMutability": "view",
      "type": "function"
    },
    {
      "inputs": [],
      "name": "getAllTransactions",
      "outputs": [
        {
          "components": [
            {
              "internalType": "address",
              "name": "purchaser",
              "type": "address"
            },
            {
              "internalType": "uint256",
              "name": "value",
              "type": "uint256"
            },
            {
              "internalType": "uint256",
              "name": "amount",
              "type": "uint256"
            },
            {
              "internalType": "uint256",
              "name": "timestamp",
              "type": "uint256"
            }
          ],
          "internalType": "struct UNI.TokensPurchasedStruct[]",
          "name": "",
          "type": "tuple[]"
        }
      ],
      "stateMutability": "view",
      "type": "function"
    },
    {
      "inputs": [],
      "name": "getTransactionCount",
      "outputs": [
        {
          "internalType": "uint256",
          "name": "",
          "type": "uint256"
        }
      ],
      "stateMutability": "view",
      "type": "function"
    },
    {
      "inputs": [],
      "name": "hardCap",
      "outputs": [
        {
          "internalType": "uint256",
          "name": "",
          "type": "uint256"
        }
      ],
      "stateMutability": "view",
      "type": "function"
    },
    {
      "inputs": [],
      "name": "maxPurchase",
      "outputs": [
        {
          "internalType": "uint256",
          "name": "",
          "type": "uint256"
        }
      ],
      "stateMutability": "view",
      "type": "function"
    },
    {
      "inputs": [],
      "name": "minPurchase",
      "outputs": [
        {
          "internalType": "uint256",
          "name": "",
          "type": "uint256"
        }
      ],
      "stateMutability": "view",
      "type": "function"
    },
    {
      "inputs": [
        {
          "internalType": "uint256",
          "name": "tokens",
          "type": "uint256"
        }
      ],
      "name": "mintTokens",
      "outputs": [],
      "stateMutability": "payable",
      "type": "function"
    },
    {
      "inputs": [],
      "name": "name",
      "outputs": [
        {
          "internalType": "string",
          "name": "",
          "type": "string"
        }
      ],
      "stateMutability": "view",
      "type": "function"
    },
    {
      "inputs": [],
      "name": "owner",
      "outputs": [
        {
          "internalType": "address payable",
          "name": "",
          "type": "address"
        }
      ],
      "stateMutability": "view",
      "type": "function"
    },
    {
      "inputs": [
        {
          "internalType": "uint256",
          "name": "value",
          "type": "uint256"
        }
      ],
      "name": "setHardCap",
      "outputs": [],
      "stateMutability": "nonpayable",
      "type": "function"
    },
    {
      "inputs": [
        {
          "internalType": "uint256",
          "name": "newRate",
          "type": "uint256"
        }
      ],
      "name": "setRate",
      "outputs": [],
      "stateMutability": "nonpayable",
      "type": "function"
    },
    {
      "inputs": [],
      "name": "symbol",
      "outputs": [
        {
          "internalType": "string",
          "name": "",
          "type": "string"
        }
      ],
      "stateMutability": "view",
      "type": "function"
    },
    {
      "inputs": [],
      "name": "totalSupply",
      "outputs": [
        {
          "internalType": "uint256",
          "name": "",
          "type": "uint256"
        }
      ],
      "stateMutability": "view",
      "type": "function"
    },
    {
      "inputs": [
        {
          "internalType": "address",
          "name": "to",
          "type": "address"
        },
        {
          "internalType": "uint256",
          "name": "value",
          "type": "uint256"
        }
      ],
      "name": "transfer",
      "outputs": [
        {
          "internalType": "bool",
          "name": "",
          "type": "bool"
        }
      ],
      "stateMutability": "nonpayable",
      "type": "function"
    },
    {
      "inputs": [
        {
          "internalType": "address",
          "name": "from",
          "type": "address"
        },
        {
          "internalType": "address",
          "name": "to",
          "type": "address"
        },
        {
          "internalType": "uint256",
          "name": "value",
          "type": "uint256"
        }
      ],
      "name": "transferFrom",
      "outputs": [
        {
          "internalType": "bool",
          "name": "",
          "type": "bool"
        }
      ],
      "stateMutability": "nonpayable",
      "type": "function"
    },
    {
      "inputs": [],
      "name": "weiRaised",
      "outputs": [
        {
          "internalType": "uint256",
          "name": "",
          "type": "uint256"
        }
      ],
      "stateMutability": "view",
      "type": "function"
    },
    {
      "inputs": [],
      "name": "withdraw",
      "outputs": [],
      "stateMutability": "nonpayable",
      "type": "function"
    },
    {
      "stateMutability": "payable",
      "type": "receive"
    }
  ],
  "bytecode": "0x60a0604052600060075567016345785d8a0000600855670de0b6b3a7640000600955620000316200024560201b60201c565b600a6200003f919062000793565b614e206200004e9190620007e4565b600a553480156200005e57600080fd5b50604051620032f9380380620032f9833981810160405281019062000084919062000865565b620000946200024560201b60201c565b600a620000a2919062000793565b82620000af9190620007e4565b6040518060400160405280600781526020017f556e6973776170000000000000000000000000000000000000000000000000008152506040518060400160405280600381526020017f554e49000000000000000000000000000000000000000000000000000000000081525081600390816200012c919062000b1c565b5080600490816200013e919062000b1c565b505050600081036200018a5760006040517f392e1e2700000000000000000000000000000000000000000000000000000000815260040162000181919062000c46565b60405180910390fd5b80608081815250505033600560006101000a81548173ffffffffffffffffffffffffffffffffffffffff021916908373ffffffffffffffffffffffffffffffffffffffff160217905550806006819055506200023d600560009054906101000a900473ffffffffffffffffffffffffffffffffffffffff16620002126200024560201b60201c565b600a62000220919062000793565b6305f5e100620002319190620007e4565b6200024e60201b60201c565b505062000d98565b60006012905090565b600073ffffffffffffffffffffffffffffffffffffffff168273ffffffffffffffffffffffffffffffffffffffff1603620002c35760006040517fec442f05000000000000000000000000000000000000000000000000000000008152600401620002ba919062000ca8565b60405180910390fd5b620002d760008383620002db60201b60201c565b5050565b620002ee838383620002f360201b60201c565b505050565b62000306838383620003b560201b60201c565b600073ffffffffffffffffffffffffffffffffffffffff168373ffffffffffffffffffffffffffffffffffffffff1603620003b05760006200034d620005e560201b60201c565b9050600062000361620005ef60201b60201c565b905081811115620003ad5780826040517f9e79f854000000000000000000000000000000000000000000000000000000008152600401620003a492919062000cd6565b60405180910390fd5b50505b505050565b600073ffffffffffffffffffffffffffffffffffffffff168373ffffffffffffffffffffffffffffffffffffffff16036200040b578060026000828254620003fe919062000d03565b92505081905550620004e1565b60008060008573ffffffffffffffffffffffffffffffffffffffff1673ffffffffffffffffffffffffffffffffffffffff168152602001908152602001600020549050818110156200049a578381836040517fe450d38c000000000000000000000000000000000000000000000000000000008152600401620004919392919062000d3e565b60405180910390fd5b8181036000808673ffffffffffffffffffffffffffffffffffffffff1673ffffffffffffffffffffffffffffffffffffffff16815260200190815260200160002081905550505b600073ffffffffffffffffffffffffffffffffffffffff168273ffffffffffffffffffffffffffffffffffffffff16036200052c578060026000828254039250508190555062000579565b806000808473ffffffffffffffffffffffffffffffffffffffff1673ffffffffffffffffffffffffffffffffffffffff168152602001908152602001600020600082825401925050819055505b8173ffffffffffffffffffffffffffffffffffffffff168373ffffffffffffffffffffffffffffffffffffffff167fddf252ad1be2c89b69c2b068fc378daa952ba7f163c4a11628f55a4df523b3ef83604051620005d8919062000d7b565b60405180910390a3505050565b6000608051905090565b6000600254905090565b7f4e487b7100000000000000000000000000000000000000000000000000000000600052601160045260246000fd5b60008160011c9050919050565b6000808291508390505b600185111562000687578086048111156200065f576200065e620005f9565b5b60018516156200066f5780820291505b80810290506200067f8562000628565b94506200063f565b94509492505050565b600082620006a2576001905062000775565b81620006b2576000905062000775565b8160018114620006cb5760028114620006d6576200070c565b600191505062000775565b60ff841115620006eb57620006ea620005f9565b5b8360020a915084821115620007055762000704620005f9565b5b5062000775565b5060208310610133831016604e8410600b8410161715620007465782820a90508381111562000740576200073f620005f9565b5b62000775565b62000755848484600162000635565b925090508184048111156200076f576200076e620005f9565b5b81810290505b9392505050565b6000819050919050565b600060ff82169050919050565b6000620007a0826200077c565b9150620007ad8362000786565b9250620007dc7fffffffffffffffffffffffffffffffffffffffffffffffffffffffffffffffff848462000690565b905092915050565b6000620007f1826200077c565b9150620007fe836200077c565b92508282026200080e816200077c565b91508282048414831517620008285762000827620005f9565b5b5092915050565b600080fd5b6200083f816200077c565b81146200084b57600080fd5b50565b6000815190506200085f8162000834565b92915050565b600080604083850312156200087f576200087e6200082f565b5b60006200088f858286016200084e565b9250506020620008a2858286016200084e565b9150509250929050565b600081519050919050565b7f4e487b7100000000000000000000000000000000000000000000000000000000600052604160045260246000fd5b7f4e487b7100000000000000000000000000000000000000000000000000000000600052602260045260246000fd5b600060028204905060018216806200092e57607f821691505b602082108103620009445762000943620008e6565b5b50919050565b60008190508160005260206000209050919050565b60006020601f8301049050919050565b600082821b905092915050565b600060088302620009ae7fffffffffffffffffffffffffffffffffffffffffffffffffffffffffffffffff826200096f565b620009ba86836200096f565b95508019841693508086168417925050509392505050565b6000819050919050565b6000620009fd620009f7620009f1846200077c565b620009d2565b6200077c565b9050919050565b6000819050919050565b62000a1983620009dc565b62000a3162000a288262000a04565b8484546200097c565b825550505050565b600090565b62000a4862000a39565b62000a5581848462000a0e565b505050565b5b8181101562000a7d5762000a7160008262000a3e565b60018101905062000a5b565b5050565b601f82111562000acc5762000a96816200094a565b62000aa1846200095f565b8101602085101562000ab1578190505b62000ac962000ac0856200095f565b83018262000a5a565b50505b505050565b600082821c905092915050565b600062000af16000198460080262000ad1565b1980831691505092915050565b600062000b0c838362000ade565b9150826002028217905092915050565b62000b2782620008ac565b67ffffffffffffffff81111562000b435762000b42620008b7565b5b62000b4f825462000915565b62000b5c82828562000a81565b600060209050601f83116001811462000b94576000841562000b7f578287015190505b62000b8b858262000afe565b86555062000bfb565b601f19841662000ba4866200094a565b60005b8281101562000bce5784890151825560018201915060208501945060208101905062000ba7565b8683101562000bee578489015162000bea601f89168262000ade565b8355505b6001600288020188555050505b505050505050565b6000819050919050565b600062000c2e62000c2862000c228462000c03565b620009d2565b6200077c565b9050919050565b62000c408162000c0d565b82525050565b600060208201905062000c5d600083018462000c35565b92915050565b600073ffffffffffffffffffffffffffffffffffffffff82169050919050565b600062000c908262000c63565b9050919050565b62000ca28162000c83565b82525050565b600060208201905062000cbf600083018462000c97565b92915050565b62000cd0816200077c565b82525050565b600060408201905062000ced600083018562000cc5565b62000cfc602083018462000cc5565b9392505050565b600062000d10826200077c565b915062000d1d836200077c565b925082820190508082111562000d385762000d37620005f9565b5b92915050565b600060608201905062000d55600083018662000c97565b62000d64602083018562000cc5565b62000d73604083018462000cc5565b949350505050565b600060208201905062000d92600083018462000cc5565b92915050565b60805161254562000db46000396000610a4201526125456000f3fe6080604052600436106101a05760003560e01c80634042b66f116100ec57806397304ced1161008a578063d0febe4c11610064578063d0febe4c146105b2578063d18d944b146105bc578063dd62ed3e146105e5578063fb86a40414610622576101af565b806397304ced1461052e578063977b055b1461054a578063a9059cbb14610575576101af565b806383bebced116100c657806383bebced146104825780638da5cb5b146104ad57806394a5aa8d146104d857806395d89b4114610503576101af565b80634042b66f146103f157806370a082311461041c5780637fb2689c14610459576101af565b806327506f531161015957806333b5b62e1161013357806333b5b62e1461035b57806334fcf43714610386578063355274ea146103af5780633ccfd60b146103da576101af565b806327506f53146102da5780632e7700f014610305578063313ce56714610330576101af565b806306fdde03146101b4578063095ea7b3146101df57806318160ddd1461021c578063186fd74d146102475780631b8e94a11461027257806323b872dd1461029d576101af565b366101af576101ad61064d565b005b600080fd5b3480156101c057600080fd5b506101c96107b8565b6040516101d691906119bf565b60405180910390f35b3480156101eb57600080fd5b5061020660048036038101906102019190611a7a565b61084a565b6040516102139190611ad5565b60405180910390f35b34801561022857600080fd5b5061023161086d565b60405161023e9190611aff565b60405180910390f35b34801561025357600080fd5b5061025c610877565b6040516102699190611aff565b60405180910390f35b34801561027e57600080fd5b5061028761087f565b6040516102949190611aff565b60405180910390f35b3480156102a957600080fd5b506102c460048036038101906102bf9190611b1a565b610889565b6040516102d19190611ad5565b60405180910390f35b3480156102e657600080fd5b506102ef6108b8565b6040516102fc9190611c8f565b60405180910390f35b34801561031157600080fd5b5061031a61098b565b6040516103279190611aff565b60405180910390f35b34801561033c57600080fd5b50610345610995565b6040516103529190611ccd565b60405180910390f35b34801561036757600080fd5b5061037061099e565b60405161037d9190611aff565b60405180910390f35b34801561039257600080fd5b506103ad60048036038101906103a89190611ce8565b6109a4565b005b3480156103bb57600080fd5b506103c4610a3e565b6040516103d19190611aff565b60405180910390f35b3480156103e657600080fd5b506103ef610a66565b005b3480156103fd57600080fd5b50610406610ba4565b6040516104139190611aff565b60405180910390f35b34801561042857600080fd5b50610443600480360381019061043e9190611d15565b610bae565b6040516104509190611aff565b60405180910390f35b34801561046557600080fd5b50610480600480360381019061047b9190611ce8565b610bf6565b005b34801561048e57600080fd5b50610497610c03565b6040516104a49190611aff565b60405180910390f35b3480156104b957600080fd5b506104c2610c09565b6040516104cf9190611d63565b60405180910390f35b3480156104e457600080fd5b506104ed610c2f565b6040516104fa9190611aff565b60405180910390f35b34801561050f57600080fd5b50610518610c35565b60405161052591906119bf565b60405180910390f35b61054860048036038101906105439190611ce8565b610cc7565b005b34801561055657600080fd5b5061055f610e00565b60405161056c9190611aff565b60405180910390f35b34801561058157600080fd5b5061059c60048036038101906105979190611a7a565b610e06565b6040516105a99190611ad5565b60405180910390f35b6105ba61064d565b005b3480156105c857600080fd5b506105e360048036038101906105de9190611ce8565b610e29565b005b3480156105f157600080fd5b5061060c60048036038101906106079190611d7e565b610ec3565b6040516106199190611aff565b60405180910390f35b34801561062e57600080fd5b50610637610f4a565b6040516106449190611aff565b60405180910390f35b600033905060003490506106618282610f50565b600061066c82611090565b9050610683826007546110d390919063ffffffff16565b6007819055506106938382611131565b6001600b60008282546106a69190611ded565b92505081905550600c60405180608001604052808573ffffffffffffffffffffffffffffffffffffffff16815260200184815260200183815260200142815250908060018154018082558091505060019003906000526020600020906004020160009091909190915060008201518160000160006101000a81548173ffffffffffffffffffffffffffffffffffffffff021916908373ffffffffffffffffffffffffffffffffffffffff16021790555060208201518160010155604082015181600201556060820151816003015550507f0d1a0d5e3d583a0e92588799dd06e50fd78c07daf05f0cc06d7b848b1ca445f1838383426040516107ab9493929190611e80565b60405180910390a1505050565b6060600380546107c790611ef4565b80601f01602080910402602001604051908101604052809291908181526020018280546107f390611ef4565b80156108405780601f1061081557610100808354040283529160200191610840565b820191906000526020600020905b81548152906001019060200180831161082357829003601f168201915b5050505050905090565b6000806108556111b3565b90506108628185856111bb565b600191505092915050565b6000600254905090565b600047905090565b6000600654905090565b6000806108946111b3565b90506108a18582856111cd565b6108ac858585611262565b60019150509392505050565b6060600c805480602002602001604051908101604052809291908181526020016000905b8282101561098257838290600052602060002090600402016040518060800160405290816000820160009054906101000a900473ffffffffffffffffffffffffffffffffffffffff1673ffffffffffffffffffffffffffffffffffffffff1673ffffffffffffffffffffffffffffffffffffffff1681526020016001820154815260200160028201548152602001600382015481525050815260200190600101906108dc565b50505050905090565b6000600b54905090565b60006012905090565b60085481565b600560009054906101000a900473ffffffffffffffffffffffffffffffffffffffff1673ffffffffffffffffffffffffffffffffffffffff163373ffffffffffffffffffffffffffffffffffffffff1614610a34576040517f08c379a0000000000000000000000000000000000000000000000000000000008152600401610a2b90611f71565b60405180910390fd5b8060068190555050565b60007f0000000000000000000000000000000000000000000000000000000000000000905090565b600560009054906101000a900473ffffffffffffffffffffffffffffffffffffffff1673ffffffffffffffffffffffffffffffffffffffff163373ffffffffffffffffffffffffffffffffffffffff1614610af6576040517f08c379a0000000000000000000000000000000000000000000000000000000008152600401610aed90611f71565b60405180910390fd5b60004711610b39576040517f08c379a0000000000000000000000000000000000000000000000000000000008152600401610b3090611fdd565b60405180910390fd5b600560009054906101000a900473ffffffffffffffffffffffffffffffffffffffff1673ffffffffffffffffffffffffffffffffffffffff166108fc479081150290604051600060405180830381858888f19350505050158015610ba1573d6000803e3d6000fd5b50565b6000600754905090565b60008060008373ffffffffffffffffffffffffffffffffffffffff1673ffffffffffffffffffffffffffffffffffffffff168152602001908152602001600020549050919050565b610c003382611131565b50565b60065481565b600560009054906101000a900473ffffffffffffffffffffffffffffffffffffffff1681565b60075481565b606060048054610c4490611ef4565b80601f0160208091040260200160405190810160405280929190818152602001828054610c7090611ef4565b8015610cbd5780601f10610c9257610100808354040283529160200191610cbd565b820191906000526020600020905b815481529060010190602001808311610ca057829003601f168201915b5050505050905090565b60003390506000349050610cdb8284611131565b6001600b6000828254610cee9190611ded565b92505081905550600c60405180608001604052808473ffffffffffffffffffffffffffffffffffffffff16815260200183815260200185815260200142815250908060018154018082558091505060019003906000526020600020906004020160009091909190915060008201518160000160006101000a81548173ffffffffffffffffffffffffffffffffffffffff021916908373ffffffffffffffffffffffffffffffffffffffff16021790555060208201518160010155604082015181600201556060820151816003015550507f0d1a0d5e3d583a0e92588799dd06e50fd78c07daf05f0cc06d7b848b1ca445f182828542604051610df39493929190611e80565b60405180910390a1505050565b60095481565b600080610e116111b3565b9050610e1e818585611262565b600191505092915050565b600560009054906101000a900473ffffffffffffffffffffffffffffffffffffffff1673ffffffffffffffffffffffffffffffffffffffff163373ffffffffffffffffffffffffffffffffffffffff1614610eb9576040517f08c379a0000000000000000000000000000000000000000000000000000000008152600401610eb090611f71565b60405180910390fd5b80600a8190555050565b6000600160008473ffffffffffffffffffffffffffffffffffffffff1673ffffffffffffffffffffffffffffffffffffffff16815260200190815260200160002060008373ffffffffffffffffffffffffffffffffffffffff1673ffffffffffffffffffffffffffffffffffffffff16815260200190815260200160002054905092915050565b600a5481565b600073ffffffffffffffffffffffffffffffffffffffff168273ffffffffffffffffffffffffffffffffffffffff1603610fbf576040517f08c379a0000000000000000000000000000000000000000000000000000000008152600401610fb690612049565b60405180910390fd5b60008103611002576040517f08c379a0000000000000000000000000000000000000000000000000000000008152600401610ff9906120b5565b60405180910390fd5b600854811015611047576040517f08c379a000000000000000000000000000000000000000000000000000000000815260040161103e90612147565b60405180910390fd5b60095481111561108c576040517f08c379a000000000000000000000000000000000000000000000000000000000815260040161108390612147565b60405180910390fd5b5050565b60006110cc61109d610995565b600a6110a9919061229a565b6110be6006548561135690919063ffffffff16565b6113a090919063ffffffff16565b9050919050565b60008082846110e29190611ded565b905083811015611127576040517f08c379a000000000000000000000000000000000000000000000000000000000815260040161111e90612331565b60405180910390fd5b8091505092915050565b600073ffffffffffffffffffffffffffffffffffffffff168273ffffffffffffffffffffffffffffffffffffffff16036111a35760006040517fec442f0500000000000000000000000000000000000000000000000000000000815260040161119a9190612360565b60405180910390fd5b6111af6000838361141a565b5050565b600033905090565b6111c8838383600161142a565b505050565b60006111d98484610ec3565b90507fffffffffffffffffffffffffffffffffffffffffffffffffffffffffffffffff81101561125c578181101561124c578281836040517ffb8f41b20000000000000000000000000000000000000000000000000000000081526004016112439392919061237b565b60405180910390fd5b61125b8484848403600061142a565b5b50505050565b600073ffffffffffffffffffffffffffffffffffffffff168373ffffffffffffffffffffffffffffffffffffffff16036112d45760006040517f96c6fd1e0000000000000000000000000000000000000000000000000000000081526004016112cb9190612360565b60405180910390fd5b600073ffffffffffffffffffffffffffffffffffffffff168273ffffffffffffffffffffffffffffffffffffffff16036113465760006040517fec442f0500000000000000000000000000000000000000000000000000000000815260040161133d9190612360565b60405180910390fd5b61135183838361141a565b505050565b600061139883836040518060400160405280601a81526020017f536166654d6174683a206469766973696f6e206279207a65726f000000000000815250611601565b905092915050565b60008083036113b25760009050611414565b600082846113c091906123b2565b90508284826113cf9190612423565b1461140f576040517f08c379a0000000000000000000000000000000000000000000000000000000008152600401611406906124c6565b60405180910390fd5b809150505b92915050565b611425838383611664565b505050565b600073ffffffffffffffffffffffffffffffffffffffff168473ffffffffffffffffffffffffffffffffffffffff160361149c5760006040517fe602df050000000000000000000000000000000000000000000000000000000081526004016114939190612360565b60405180910390fd5b600073ffffffffffffffffffffffffffffffffffffffff168373ffffffffffffffffffffffffffffffffffffffff160361150e5760006040517f94280d620000000000000000000000000000000000000000000000000000000081526004016115059190612360565b60405180910390fd5b81600160008673ffffffffffffffffffffffffffffffffffffffff1673ffffffffffffffffffffffffffffffffffffffff16815260200190815260200160002060008573ffffffffffffffffffffffffffffffffffffffff1673ffffffffffffffffffffffffffffffffffffffff1681526020019081526020016000208190555080156115fb578273ffffffffffffffffffffffffffffffffffffffff168473ffffffffffffffffffffffffffffffffffffffff167f8c5be1e5ebec7d5bd14f71427d1e84f3dd0314c0f7b2291e5b200ac8c7c3b925846040516115f29190611aff565b60405180910390a35b50505050565b60008083118290611648576040517f08c379a000000000000000000000000000000000000000000000000000000000815260040161163f91906119bf565b60405180910390fd5b50600083856116579190612423565b9050809150509392505050565b61166f83838361170a565b600073ffffffffffffffffffffffffffffffffffffffff168373ffffffffffffffffffffffffffffffffffffffff16036117055760006116ad610a3e565b905060006116b961086d565b9050818111156117025780826040517f9e79f8540000000000000000000000000000000000000000000000000000000081526004016116f99291906124e6565b60405180910390fd5b50505b505050565b600073ffffffffffffffffffffffffffffffffffffffff168373ffffffffffffffffffffffffffffffffffffffff160361175c5780600260008282546117509190611ded565b9250508190555061182f565b60008060008573ffffffffffffffffffffffffffffffffffffffff1673ffffffffffffffffffffffffffffffffffffffff168152602001908152602001600020549050818110156117e8578381836040517fe450d38c0000000000000000000000000000000000000000000000000000000081526004016117df9392919061237b565b60405180910390fd5b8181036000808673ffffffffffffffffffffffffffffffffffffffff1673ffffffffffffffffffffffffffffffffffffffff16815260200190815260200160002081905550505b600073ffffffffffffffffffffffffffffffffffffffff168273ffffffffffffffffffffffffffffffffffffffff160361187857806002600082825403925050819055506118c5565b806000808473ffffffffffffffffffffffffffffffffffffffff1673ffffffffffffffffffffffffffffffffffffffff168152602001908152602001600020600082825401925050819055505b8173ffffffffffffffffffffffffffffffffffffffff168373ffffffffffffffffffffffffffffffffffffffff167fddf252ad1be2c89b69c2b068fc378daa952ba7f163c4a11628f55a4df523b3ef836040516119229190611aff565b60405180910390a3505050565b600081519050919050565b600082825260208201905092915050565b60005b8381101561196957808201518184015260208101905061194e565b60008484015250505050565b6000601f19601f8301169050919050565b60006119918261192f565b61199b818561193a565b93506119ab81856020860161194b565b6119b481611975565b840191505092915050565b600060208201905081810360008301526119d98184611986565b905092915050565b600080fd5b600073ffffffffffffffffffffffffffffffffffffffff82169050919050565b6000611a11826119e6565b9050919050565b611a2181611a06565b8114611a2c57600080fd5b50565b600081359050611a3e81611a18565b92915050565b6000819050919050565b611a5781611a44565b8114611a6257600080fd5b50565b600081359050611a7481611a4e565b92915050565b60008060408385031215611a9157611a906119e1565b5b6000611a9f85828601611a2f565b9250506020611ab085828601611a65565b9150509250929050565b60008115159050919050565b611acf81611aba565b82525050565b6000602082019050611aea6000830184611ac6565b92915050565b611af981611a44565b82525050565b6000602082019050611b146000830184611af0565b92915050565b600080600060608486031215611b3357611b326119e1565b5b6000611b4186828701611a2f565b9350506020611b5286828701611a2f565b9250506040611b6386828701611a65565b9150509250925092565b600081519050919050565b600082825260208201905092915050565b6000819050602082019050919050565b611ba281611a06565b82525050565b611bb181611a44565b82525050565b608082016000820151611bcd6000850182611b99565b506020820151611be06020850182611ba8565b506040820151611bf36040850182611ba8565b506060820151611c066060850182611ba8565b50505050565b6000611c188383611bb7565b60808301905092915050565b6000602082019050919050565b6000611c3c82611b6d565b611c468185611b78565b9350611c5183611b89565b8060005b83811015611c82578151611c698882611c0c565b9750611c7483611c24565b925050600181019050611c55565b5085935050505092915050565b60006020820190508181036000830152611ca98184611c31565b905092915050565b600060ff82169050919050565b611cc781611cb1565b82525050565b6000602082019050611ce26000830184611cbe565b92915050565b600060208284031215611cfe57611cfd6119e1565b5b6000611d0c84828501611a65565b91505092915050565b600060208284031215611d2b57611d2a6119e1565b5b6000611d3984828501611a2f565b91505092915050565b6000611d4d826119e6565b9050919050565b611d5d81611d42565b82525050565b6000602082019050611d786000830184611d54565b92915050565b60008060408385031215611d9557611d946119e1565b5b6000611da385828601611a2f565b9250506020611db485828601611a2f565b9150509250929050565b7f4e487b7100000000000000000000000000000000000000000000000000000000600052601160045260246000fd5b6000611df882611a44565b9150611e0383611a44565b9250828201905080821115611e1b57611e1a611dbe565b5b92915050565b6000819050919050565b6000611e46611e41611e3c846119e6565b611e21565b6119e6565b9050919050565b6000611e5882611e2b565b9050919050565b6000611e6a82611e4d565b9050919050565b611e7a81611e5f565b82525050565b6000608082019050611e956000830187611e71565b611ea26020830186611af0565b611eaf6040830185611af0565b611ebc6060830184611af0565b95945050505050565b7f4e487b7100000000000000000000000000000000000000000000000000000000600052602260045260246000fd5b60006002820490506001821680611f0c57607f821691505b602082108103611f1f57611f1e611ec5565b5b50919050565b7f6f6e6c795f6f776e65725f616363657373000000000000000000000000000000600082015250565b6000611f5b60118361193a565b9150611f6682611f25565b602082019050919050565b60006020820190508181036000830152611f8a81611f4e565b9050919050565b7f7a65726f5f62616c616e63650000000000000000000000000000000000000000600082015250565b6000611fc7600c8361193a565b9150611fd282611f91565b602082019050919050565b60006020820190508181036000830152611ff681611fba565b9050919050565b7f496e76616c696420616464726573730000000000000000000000000000000000600082015250565b6000612033600f8361193a565b915061203e82611ffd565b602082019050919050565b6000602082019050818103600083015261206281612026565b9050919050565b7f496e73756666696369656e742062696400000000000000000000000000000000600082015250565b600061209f60108361193a565b91506120aa82612069565b602082019050919050565b600060208201905081810360008301526120ce81612092565b9050919050565b7f496e73756666696369656e74206269642c20626964206e6f742077697468696e60008201527f206361702072616e676520302e31202d20312045544800000000000000000000602082015250565b600061213160368361193a565b915061213c826120d5565b604082019050919050565b6000602082019050818103600083015261216081612124565b9050919050565b60008160011c9050919050565b6000808291508390505b60018511156121be5780860481111561219a57612199611dbe565b5b60018516156121a95780820291505b80810290506121b785612167565b945061217e565b94509492505050565b6000826121d75760019050612293565b816121e55760009050612293565b81600181146121fb576002811461220557612234565b6001915050612293565b60ff84111561221757612216611dbe565b5b8360020a91508482111561222e5761222d611dbe565b5b50612293565b5060208310610133831016604e8410600b84101617156122695782820a90508381111561226457612263611dbe565b5b612293565b6122768484846001612174565b9250905081840481111561228d5761228c611dbe565b5b81810290505b9392505050565b60006122a582611a44565b91506122b083611cb1565b92506122dd7fffffffffffffffffffffffffffffffffffffffffffffffffffffffffffffffff84846121c7565b905092915050565b7f536166654d6174683a206164646974696f6e206f766572666c6f770000000000600082015250565b600061231b601b8361193a565b9150612326826122e5565b602082019050919050565b6000602082019050818103600083015261234a8161230e565b9050919050565b61235a81611a06565b82525050565b60006020820190506123756000830184612351565b92915050565b60006060820190506123906000830186612351565b61239d6020830185611af0565b6123aa6040830184611af0565b949350505050565b60006123bd82611a44565b91506123c883611a44565b92508282026123d681611a44565b915082820484148315176123ed576123ec611dbe565b5b5092915050565b7f4e487b7100000000000000000000000000000000000000000000000000000000600052601260045260246000fd5b600061242e82611a44565b915061243983611a44565b925082612449576124486123f4565b5b828204905092915050565b7f536166654d6174683a206d756c7469706c69636174696f6e206f766572666c6f60008201527f7700000000000000000000000000000000000000000000000000000000000000602082015250565b60006124b060218361193a565b91506124bb82612454565b604082019050919050565b600060208201905081810360008301526124df816124a3565b9050919050565b60006040820190506124fb6000830185611af0565b6125086020830184611af0565b939250505056fea2646970667358221220db5896766495244a028b090bca08a16c5a8b72a6324c9e56717d739444d8019464736f6c63430008140033",
  "linkReferences": {},
  "deployedLinkReferences": {}
}